{
  "contractName": "FundEth",
  "abi": [
    {
      "inputs": [
        {
          "internalType": "string",
          "name": "_title",
          "type": "string"
        },
        {
          "internalType": "string",
          "name": "description",
          "type": "string"
        },
        {
          "internalType": "uint256",
          "name": "targetAmount",
          "type": "uint256"
        },
        {
          "internalType": "uint256",
          "name": "duration",
          "type": "uint256"
        }
      ],
      "name": "startCampaign",
      "outputs": [],
      "stateMutability": "nonpayable",
      "type": "function"
    },
    {
      "inputs": [],
      "name": "contribute",
      "outputs": [],
      "stateMutability": "payable",
      "type": "function"
    },
    {
      "inputs": [],
      "name": "getInfo",
      "outputs": [],
      "stateMutability": "view",
      "type": "function"
    }
  ],
  "bytecode": "0x608060405234801561001057600080fd5b50610211806100206000396000f3fe6080604052600436106100345760003560e01c80635a9b0b8914610039578063736750dc14610050578063d7bb99ba14610079575b600080fd5b34801561004557600080fd5b5061004e610083565b005b34801561005c57600080fd5b5061007760048036038101906100729190610134565b610085565b005b61008161008d565b005b565b505050505050565b565b600080fd5b600080fd5b600080fd5b600080fd5b600080fd5b60008083601f8401126100be576100bd610099565b5b8235905067ffffffffffffffff8111156100db576100da61009e565b5b6020830191508360018202830111156100f7576100f66100a3565b5b9250929050565b6000819050919050565b610111816100fe565b811461011c57600080fd5b50565b60008135905061012e81610108565b92915050565b600080600080600080608087890312156101515761015061008f565b5b600087013567ffffffffffffffff81111561016f5761016e610094565b5b61017b89828a016100a8565b9650965050602087013567ffffffffffffffff81111561019e5761019d610094565b5b6101aa89828a016100a8565b945094505060406101bd89828a0161011f565b92505060606101ce89828a0161011f565b915050929550929550929556fea26469706673582212201642f25c441996b7f11acf96325abd1f11a554ec49c0a1ba8fe5782438b6c83064736f6c63430008090033",
  "immutableReferences": {},
  "source": "// SPDX-License-Identifier: MIT\npragma solidity >=0.4.22 <0.9.0;\n\ncontract FundEth {\n  /*constructor() public {\n  }\n  */\n\n \n\n  function  startCampaign (\n    string calldata _title, \n    string calldata description,\n    uint targetAmount, \n    uint duration) public {\n    // take title of campaign, description, with targetAmount and duration for the campaign\n  }\n\n  function contribute() external payable{\n    //contribute to campaign\n  }\n\n  function getInfo() public view {\n    // gets detailed information about the campaign\n  }\n\n\n\n\n\n}\n",
  "sourcePath": "/Users/khush/Documents/project/github/blockchain-developer-bootcamp-final-project/contracts/FundEth.sol",
  "compiler": {
    "name": "solc",
    "version": "0.8.9+commit.e5eed63a.Emscripten.clang"
  },
  "schemaVersion": "3.4.3",
  "updatedAt": "2021-11-18T01:30:42.005Z",
  "devdoc": {
    "kind": "dev",
    "methods": {},
    "version": 1
  },
  "userdoc": {
    "kind": "user",
    "methods": {},
    "version": 1
  }
}